:020000040800F2
:1000000030070020450200082B1F0008231F0008AE
:10001000271F0008491A0008DD2E00080000000014
:100020000000000000000000000000001126000891
:100030003B1D000800000000C52300080127000840
:100040005F0200085F0200085F0200085F0200080C
:100050005F0200085F0200085F0200085F020008FC
:100060005F0200085F0200085F0200085F020008EC
:100070005F0200085F0200085F0200085F020008DC
:100080004D1A00085F0200085F0200085F020008C6
:100090005F0200085F0200085F0200085F020008BC
:1000A0005F0200085F0200085F0200085F020008AC
:1000B0005F0200085F0200086D2700085F02000869
:1000C0005F0200085F0200085F0200085F0200088C
:1000D0005F0200085F0200085F0200085F0200087C
:1000E0005F0200085F0200085F0200085F0200086C
:1000F0005F0200085F0200085F0200085F0200085C
:100100005F0200085F0200085F0200085F0200084B
:100110005F0200085F0200085F0200085F0200083B
:100120005F0200085F0200085F0200085F0200082B
:100130005F0200085F0200085F0200085F0200081B
:100140005F0200085F0200085F0200085F0200080B
:100150005F0200085F0200085F0200085F020008FB
:100160005F0200085F0200085F0200085F020008EB
:100170005F0200085F0200085F0200085F020008DB
:100180005F0200085F02000800F002F800F04AF881
:100190000AA090E8000C82448344AAF10107DA45E2
:1001A00001D100F03FF8AFF2090EBAE80F0013F0EA
:1001B000010F18BFFB1A43F001031847604000000D
:1001C00080400000103A24BF78C878C1FAD852079E
:1001D00024BF30C830C144BF04680C6070470000C1
:1001E0000023002400250026103A28BF78C1FBD840
:1001F000520728BF30C148BF0B6070471FB503F0DE
:1002000038FF00F045FB04000020002103F068F9EE
:10021000401C60600020002103F04CF9E0601FBD2D
:1002200010B510BD00F076FD1146FFF7E7FF03F0B3
:100230003FF800F0D3FF03B4FFF7F2FF03BC01F077
:1002400039F800000948804709480047FEE7FEE703
:10025000FEE7FEE7FEE7FEE7FEE7FEE7FEE7FEE776
:1002600004480549054A064B704700000527000869
:1002700089010008300100203007002030030020F1
:10028000300300200FB400B58DB010A90990009183
:100290000B904FF0FF300A9000200C9006487844F5
:1002A0000690064878446A4607900F9909A800F01E
:1002B000BFFA0DB05DF814FBAF050000C7050000E4
:1002C00010B5203AC0F00B80B1E81850203AA0E8F1
:1002D0001850B1E81850A0E81850BFF4F5AF5FEA25
:1002E000027C24BFB1E81850A0E8185044BF18C9D8
:1002F00018C0BDE810405FEA827C24BF51F8043B7F
:1003000040F8043B08BF7047D20728BF31F8023BD2
:1003100048BF11F8012B28BF20F8023B48BF00F866
:10032000012B704770477047704700002DE9FF4F61
:1003300006468BB00878FF2806D0491C2D2805D02A
:1003400000244FF0000908E000200CE00124F8E749
:1003500009EB8903491C00EB43090878FF28F7D112
:1003600014B1C9F100008146107800252C46AA4638
:1003700029462D2801D02B2804D1521C2D2813D01A
:10038000002082468B461078FF280FD04FF0000CDB
:100390000A21521CA5FB017804FB018105FB0C110D
:1003A000C5194BEB0104EEE70120EAE700210846FE
:1003B0004FF00000BAF1000F02D000EB80004008BF
:1003C000C0F38157012F01DD4FF0FF370E9955EA39
:1003D000040009EB01080BD04FF0020918F5FA7F71
:1003E00016DA4FEACA70002F706008DD012007E0BE
:1003F0004FEACA70C6E900B00FB0BDE8F08F002028
:10040000306000F049FAC0F800901821084616E064
:10041000B8F5FA7F18DD002F02DAF748784401E0DA
:10042000F6487844D0E90010C6E9001040EACA70E6
:10043000706000F031FAC0F80090142108460FB047
:10044000BDE8F04F03F01FBE002108464FF000004A
:10045000B8F10001099002DAC7F1000200E03A4663
:1004600001DAC8F1000106A800F0DEFB06AB93E854
:10047000070003AB83E8070044F23E005BEA040197
:100480000090584604D144F21E012C465D4600916E
:10049000210C0904014306D10099240444EA1544BF
:1004A0002D041039009104F07F41014306D10099D9
:1004B000240244EA15642D020839009104F07041C9
:1004C000014306D10099240144EA15742D01091F46
:1004D000009104F04041014306D10099A40044EA90
:1004E0009574AD00891E009104F00041084304D1C9
:1004F00000986D196441401E00904FF001033A4688
:100500006846B8F1000FCDE9014503A902DD01F00D
:1005100064F901E001F037F9BAF1000F04460D4625
:1005200001D084F00044002108464FF000000999F2
:1005300040F2FF77484010F00C0F07D124F0004044
:10054000284303D0C4F30A50B84212D100F0A4F9F2
:10055000C0F80090C4F30A50B8420AD1A8487844C1
:10056000D0E90010C6E9001004F0004108437060B3
:1005700042E7C6E900543FE72DE9FF4F1F464FF021
:10058000000A4FF0FF38454691B0D7E90146CDF853
:100590003CA000F07DF9C0680168405C1090B9692A
:1005A00012986D1C8847396A814688470028F6D121
:1005B000B9F1FF3F0AD0002E24F4D06411DDB9F167
:1005C0002B0F08D0B9F12D0F0BD102E0404615B02A
:1005D00013E744F48064B96912986D1C8847761E4D
:1005E0008146600504A901D52D2000E02B20002EB6
:1005F00001F1010B0DF130088DF810003FDDB9F16C
:10060000690F08D0B9F1490F05D0B9F16E0F02D0CA
:10061000B9F14E0F1CD13B4601A8009580E850026D
:10062000DDE912126FF0020003F094FDC11CCED17F
:100630000EE0B96912986D1C884781461398761EA2
:1006400044F4007405600F98401C002E0F9016DDD6
:10065000B9F1300FEDD0B9F1780F02D0B9F1580FE0
:100660000DD10F9801280AD13B46CDE90054DDE9B0
:100670001212001F029603F06BFDC11CA7D1109946
:1006800089453ED144F0800406E01399681CAAF124
:10069000010A44F400740860B9696D1C1298761E52
:1006A000884730288146F0D02BE01099894505D144
:1006B000200603D4761E44F0800418E0484602F079
:1006C00026FD08B3761E0DF123018B4544F400741A
:1006D00008D2A9F130000BF8010B200607D5AAF1CA
:1006E000010003E0200602D40AF101008246A005C1
:1006F00002D51399681C0860B96912986D1C884767
:100700008146002ED1DC53E0002E51DDB9F1650F9A
:1007100002D0B9F1450F4BD1A00549D5B9696D1C7F
:100720001298761E24F440748847002E81460CDD12
:100730002B2804D0B9F12D0F07D144F48074B96986
:1007400012986D1C8847761E8146E00501D52D2143
:1007500000E02B2108F8011BCDF8008021E0761E77
:100760000DF13901884544F400740CD2A9F1300030
:1007700010F0FF0088F8000002D10099884509D9DF
:1007800008F1010806E0E00501D51E4801E042F24B
:100790000F708246B96912986D1C8847814613987C
:1007A0000560002E04DD484602F0B1FC0028D6D1D9
:1007B000F96912988847FF2053468BF8000088F8A3
:1007C000000000200A900B9004AA0CA90AA8FFF7C9
:1007D000ADFDA00502D46FF00100F8E614F0240F7F
:1007E00012D0E0071CD13868DDE90A12031D3B6016
:1007F0000068C0E9001213E0243E0000163E00002D
:10080000DA3C0000F1D8FFFF0AA9684602F06CFC50
:10081000E00705D13868009A011D39600068026060
:100820002846D4E6026811441378016018467047E0
:10083000D16005497944516104497944116200212C
:100840001161114600F036B8EDFFFFFF63000000B4
:10085000426842B1016811F8013B23B1521EC0E960
:100860000012184670470121C160881E7047426817
:100870005AB1C368016843B983688B4205D0491EE9
:10088000521CC0E90012002070474FF0FF30704743
:1008900000487047F000002000487047D00000205A
:1008A00010B5044600F05CFA0068005D00F001003D
:1008B00010BD00002DE9F34F4FF0000A0C465646DC
:1008C0008DB001200C9001F10C000B9062690B9827
:1008D00001219047051E2DD0252D2CD0216A884757
:1008E000C0B162690B9801219047216A88470028AE
:1008F000F7D16269411E0B98904700E0761CA16910
:100900000D988847216A88470028F7D1E1690D983A
:100910008847DBE7A1690D988847A842074601D1BF
:10092000761CD3E7E1690D9888477F1C02D1BAF1A4
:10093000000F6FD06BE162690B9800273D46394686
:1009400090472A2804D162690B980121904701251C
:10095000DFF8D08262690B9801219047A0F1300145
:100960000A290AD24745E5DC07EB870100EB41077E
:10097000303FDFD445F01005ECE7E90601D46FF015
:1009800000476C280AD04C2814D0682815D06A2853
:100990000DD074281CD07A281AD01DE062690B98FB
:1009A000012190476C2802D045F0040514E045F081
:1009B00002050DE045F020050AE062690B9801216F
:1009C0009047682802D045F0080505E045F4006529
:1009D00062690B9801219047C4E9015765283DD011
:1009E00019DC58287AD00CDC452837D004DC2528BF
:1009F00026D041289ED131E046282FD0472899D1D2
:100A00002CE05B2877D0612828D063287CD064282C
:100A100023D15AE0F6E06F2848D008DC66281DD0C4
:100A200067281BD0692821D06E2816D127E07028AE
:100A300045D0732868D0752847D078280DD14DE06F
:100A4000A1690D988847252805463FF469AFE169FB
:100A50000D9888476D1C3FF46AAFD8E00D99234686
:100A60006A466FF0010003F071FBC5E045F04000FD
:100A700023464FF000026060A80736D43EE0E80746
:100A80007FF447AF2068011D21600068290501D56A
:100A900006701BE7290701D5068017E7A90703D5CC
:100AA000F117C0E9006111E706600FE745F040006B
:100AB00023464FF008026060A80716D41EE040F6F7
:100AC0000E0125EA0100606016E045F04000234673
:100AD0004FF00A026060A80707D40FE045F040001D
:100AE0006060A80708D5234610220D996FF0010019
:100AF000AFF3008080E007E0102223460D996FF0ED
:100B00000100AFF3008077E04FF0000963284F4603
:100B1000C8464B46CB4602D05B2806D038E0E806F4
:100B200001D40120A060012732E06269D4F80CB042
:100B30000B98012190475E2807D14FF001094946E3
:100B40006269D4F80CB00B989047216939B900213B
:100B50000A4603AB43F82120491C0829FADBD8B325
:100B6000216949B308F1010862690B980121904796
:100B70005D28F4D1B9F1000F09D0002003A951F884
:100B80002020D24341F82020401C0828F7DB03AB8B
:100B90002069002820794FEA40701ED05B4622462B
:100BA000CDF80080CDE901970D9900286FF0010084
:100BB00020DAAFF300801FE0C11703AA00EBD16178
:100BC0004B1121F01F0102EB8302411A136801202F
:100BD000884003431360C7E719E00D9922460028B7
:100BE0006FF00100009702DAAFF3008004E0AFF38A
:100BF000008001E0AFF3008000280ADA401C06D133
:100C00000C9820B14FF0FF300FB0BDE8F08F504688
:100C1000FAE7E90701D10AF1010A064400200C9025
:100C200054E60000CCCCCC0C2DE9F04781461646AA
:100C30008AB0354878440DC88DE80D0032487844B4
:100C4000801C03AC0DC884E80D0041F69B300844BD
:100C5000372190FBF1F290FBF1F5A5F1800501FB46
:100C600012041B3C02D56442012000E00020DFF8A2
:100C700098A080460027FA44AAF1BE0A0EE0E007D9
:100C80000AD03246684607EB470101230AEB81018F
:100C900000F08EFD8DE8070064107F1C002CEED163
:100CA000194F7F44AE3F19E0E80715D007EB041059
:100CB0000DF1180A90E80E008AE80E00C068F042B4
:100CC00001D1981908903246012306A903A800F023
:100CD0006FFD03AB83E807006D10641C002DE3D1AA
:100CE0004FF0010332466946B8F1000F03A802D065
:100CF00000F034FD01E000F05BFDC9E90001C9F836
:100D000008200AB0BDE8F087CC35000000487047E5
:100D1000D00000207546FFF7F9FFAE460500694692
:100D2000534620F00700854618B020B5FFF798FA23
:100D3000BDE820404FF000064FF000074FF00008DC
:100D40004FF0000B21F00701AC46ACE8C009ACE85D
:100D5000C009ACE8C009ACE8C0098D467047000086
:100D600010B5FFF795FD001D10BD00BF75270000F1
:100D700010B5FFF791FD006810BD10B50446FFF7F0
:100D80008BFD046010BD00002DE9FF4F1F464FF0A2
:100D90003C0987B04FF00042DDE9141001F1010871
:100DA000DDF858A002EA40500390002005908346E9
:100DB000054604460490B969461E08988847AAF17A
:100DC000010A0290BAF1000F3BDD02982E2815D0DF
:100DD000102100F060FA00282EDB4FF0010B05997E
:100DE000014317D0B9F1000F0BDB4A46C11700F0E1
:100DF0003FFA05430C43A9F1040905E001200490E2
:100E00000BE008B145F0010501200590049820B9D8
:100E1000361D02E0049800B1361FB969089808F140
:100E200001088847BBF1000FAAF1010A0290C9D05E
:100E30000999C1F80080C5E70298702808D05028A9
:100E400006D0F96908988847BBF1000F14D04FE02D
:100E5000002002900120BBF1000F049009D0B96975
:100E6000089808F101088847AAF10109B9F1000FB3
:100E700007DCF969089888476FF001000BB0BDE8FE
:100E8000F08F2B2804D02D280CD14FF0FF30049088
:100E9000B969089808F101088847A9F10109B9F171
:100EA000000FE6DD411CE4D00A2100F0F4F900282F
:100EB000DFDB029908F1010801EB810100EB410041
:100EC0000290B969089888470A2100F0E4F9099A64
:100ED000A9F10109B9F1000FC2F8008001DD002875
:100EE000E7DAF969089888470499029800FB0166D7
:100EF00055EA040004D004F04041090002D006E0A5
:100F0000039898E0A40044EA9574AD00B61E04F07E
:100F10000041080002D16D196441761E159810F049
:100F2000240F03D04FF00B095C4803E04FF0280971
:100F30006FF07D008246564507DAAAEB0601894428
:100F4000B9F1410F01DD4FF0410901200021A9F164
:100F5000010200F08DF9024628400B46214008436B
:100F600001D0012100E00021501E029143F1FF3128
:100F700028402140084301D0012000E000200299D0
:100F8000834651EA0B014FD0002108464FF0000084
:100F9000039900F4400039B100EB80004FF44001A8
:100FA00000EBD07001EA60008015012802DD4FF0EF
:100FB000FF3000E013D0401C36D0029860B3BBF184
:100FC000000F0CD14A460120002100F051F92840C1
:100FD0002140084301D0012000E00020E0B10120C1
:100FE0004A46002100F044F9034640190A4661418F
:100FF0002D1A8C4111D3B9F1400F09DD159810F06D
:10100000240F02D0AAF1340603E0AAF1170600E08B
:10101000761C00254FF0004406E05B1E42F1FF32D3
:1010200020EA030521EA0204CAF10100B04206DA0F
:101030001B49039808430190002000900EE0039A9A
:10104000C4F3D321E80A0A43164940EA44500A434C
:101050003146CDE90002684602F04FF8159810F0CD
:10106000240F0BD01598C00715D13868DDE90012A0
:10107000031D3B600068C0E900120CE002A869464D
:1010800002F032F81598C00705D13868029A011DA0
:101090003960006802604046F0E6000002FCFFFF95
:1010A0000000F07F0000F03F2DE9FF4F92461D4603
:1010B00085B04FF00041DDE9124BDDE914727F1E6F
:1010C00001EA4B50414940F0FF4940EA0108002144
:1010D00022F020004928049102D04E2828D04CE06C
:1010E0003BA0012607C88DE80700A9690698641C83
:1010F00088477F1E014606D41DF8060018B121F06E
:10110000200181420BD0E96906988847032E34D02C
:10111000082E32D06FF0010009B0BDE8F08F761CC8
:10112000032E01D0082EE0D1601CCAF80000DCE7D5
:10113000A9690698641C88477F1E2AD420F02000E5
:10114000412826D1A9690698641C88477F1E20D4AF
:1011500020F020004E281CD1A9690698641C8847FD
:101160007F1E48F4002849F48009CAF8004001D4E1
:10117000282806D0E969069888475FEACB7012D024
:1011800022E0A9690698641C88477F1E01D40028C4
:1011900003DAE96906988847BCE72928F1D1641C7D
:1011A000CAF80040E9E71BF0240F07D0286804992B
:1011B000031D2B600068C0E9001805E02868021DC7
:1011C0002A600068C0F800902046A5E70000F07F84
:1011D000494E46494E4954590000000010B5044696
:1011E000AFF300802046BDE81040FFF724B80000B0
:1011F0004FF0013C50F8042B51F8043B9A4221D1A6
:10120000A2EB0C03934313EACC1317D150F8042B31
:1012100051F8043B9A4215D1A2EB0C03934313EA15
:10122000CC130BD150F8042B51F8043B9A4209D14E
:10123000A2EB0C03934313EACC13DBD04FF0000076
:10124000704700BFD01A01BAB1FA81F101F018015C
:1012500022FA01F0CB40C1F12001DBB2C0B2C01ACA
:101260002CFA01F3D11A914311EAC311E6D1704768
:10127000B2F120030AD5C2F1200301FA02F120FAEB
:1012800003F300FA02F041EA0301704700FA03F1A8
:101290004FF0000070473A2800D2303820F020028A
:1012A000412A01D3A2F13700884201D34FF0FF3029
:1012B0007047000001491820ABBEFEE7260002007F
:1012C000704720F07F4C80EA030023F07F47ACEBAF
:1012D000070303F57C5300F0004003F1FF032DE901
:1012E00080494FEA154B09B44FEA144325EA0B4EE7
:1012F00024EA03480FF2042606EB132749083E7838
:101300005FEA320203FB0667C7F5000707FB06F634
:101310004FEA54374FEAD64606F1020607FB066C41
:10132000CCF1005C4FEA1C472CEA074C07FB06F4A3
:101330000CFB06F504EB15464FEA961634BF002069
:101340004FF000404FEAD13706FB07FC4FEA1C4C38
:101350000CFB0BF7D21B03FB0CF761EB07010CFB3B
:101360000EF7B0EB074072EB17420CFB08F734BFE7
:10137000A2EB0742B2EB074261EB17414FEA0C4484
:101380004FEA910706FB07FC4FEA1C4C0CFB0BF7DE
:10139000B0EBC74072EB573203FB0CF734BFA2EB44
:1013A000C742B2EBC74261EB57310CFB0EF7B0EB13
:1013B000C70072EB57720CFB08F734BFA2EBC702F1
:1013C000B2EBC70261EB5771039F4FEA816141EABB
:1013D000921104EBCC044FEAD1374FEA826206FB4C
:1013E00007FC42EA90124FEA80604FEA1C4C0CFB6B
:1013F0000BF7D21B03FB0CF761EB07010CFB0EF79D
:10140000B0EB074072EB17420CFB08F734BFA2EBBE
:101410000742B2EB074261EB17414FEA8C554FEAA6
:10142000910704EB9C2406FB07FC4FEA1C4C0CFBC9
:101430000BF7B0EBC74072EB573203FB0CF734BF2E
:10144000A2EBC742B2EBC74261EB57310CFB0EF780
:10145000B0EBC70072EB57720CFB08F734BFA2EB7E
:10146000C702B2EBC70261EB577115EB4C254FEA8F
:10147000816141EA92114FEA82624FEAD13742EA32
:10148000901206FB07FC44F100044FEA80604FEA2B
:101490001C4C0CFB0BF7D21B03FB0CF761EB070199
:1014A0000CFB0EF7B0EB074072EB17420CFB08F792
:1014B00034BFA2EB0742B2EB074261EB174115EBD9
:1014C0001C154FEA813141EA92414FEA823242EAE9
:1014D00090424FEA80304FEA0C7644F1000448EA2B
:1014E00003434EEA0B484FF0000EB2EB080C71EBD1
:1014F000030724BF624639464EEB0E0E4FF0000B39
:101500000018524149414BEB0B0BB2EB080C71EB4D
:1015100003077BF1000B24BF624639464EEB0E0EEB
:101520004FF0000B0018524149414BEB0B0BB2EB53
:10153000080C71EB03077BF1000B24BF62463946B0
:101540004EEB0E0E51EA020718BF46F0010616EBED
:101550000E7655F1000254F1000103D5BDE8890172
:10156000BDE80088BDE88901BDE80048B6195241D0
:1015700041EB0101A3F10103704780807F7E7D7CF8
:101580007B7A7978777676757473727171706F6E15
:101590006E6D6C6C6B6A6A696868676666656464C0
:1015A000636362616160605F5F5E5E5D5D5C5C5B4A
:1015B0005B5A5A59595858575756565555555454B9
:1015C000535352525251515050504F4F4F4E4E4D17
:1015D0004D4D4C4C4C4B4B4B4A4A4A494949484863
:1015E00048474747474646464545454444444443A3
:1015F00043434342424242414141000046EA0646DB
:10160000A3F570534FEA164646EA42564FEAD222F5
:1016100042EA415210B54FEAD121A3F1010300F093
:101620002FF820F0004000F1020C00F0004701EB21
:1016300000501146BCF5006F40EA070000D210BD13
:10164000BAF1000F0AD01CB503B44FF004004FF0FC
:1016500004014FF000000FBCBDE810404FF0000146
:10166000BBF1010FB9BF04484FF0FF31034800211F
:1016700040EA070010BD00BFFFFFEF7F0000F07FD2
:10168000002B9C4630D477002BD01CB54FEA37078F
:1016900003B44FF010004FF01001BAF1000F06D064
:1016A000BCF1000FDCBF40F0080040F008014FF033
:1016B00000000FBCBDE810400BF1010BBBF1010FA6
:1016C00008BF5FEA170722BF12F1010211F1010101
:1016D0004FF0004143F1000300F0004043EA0000F6
:1016E0007047F9D35708D0E746EA064613F1400F92
:1016F0004FEA16461FDD13F1200FDFBF16430A46DF
:10170000002120335B42BED0C3F1200746EA0646E3
:1017100002FA07F74FEA164646EA0706C3F1200722
:1017200022FA03F201FA07F721FA03F14FF000035E
:1017300042EA0702A7E746EA020646EA06464FEAF9
:10174000164646EA0106BCBF46EA0646360C4FF08E
:1017500000034FF000024FF0000194E72DE9804CA8
:101760009A46934670B491E8380007C831EA400CB5
:1017700048BF34EA430C03D5FFF7A3FDFFF780FF12
:10178000F0BCBDE8008C2DE9804C9A46934670B4BD
:1017900091E8380007C831EA400C48BF34EA430CEE
:1017A00003D5FFF78EFDFFF729FFF0BCBDE8008CE5
:1017B0002DE9804C9A46934670B491E8380007C8EA
:1017C00010F0804F08BF13F0804F03D100F01AF8DB
:1017D000FFF756FFF0BCBDE8008C2DE9804C9A461F
:1017E000934670B491E8380007C810F0804F08BFE6
:1017F00013F0804F03D100F005F8FFF7FFFEF0BCB7
:10180000BDE8008C20F07F4780EA030023F07F4C86
:1018100007EB0C03A3F57C5300F00040A3F1FE039B
:1018200092F0000F00F0B38095F0000F00F0778089
:101830002DE901494FEA11404FEA144621EA0048D8
:1018400000FB06FC24EA064708FB06F607FB08F83F
:1018500000FB07F718EB06484CEB164C4FEA124B0F
:1018600018EB07484FEA15464CEB174022EA0B4E9F
:101870000BFB06FC25EA06470EFB06F607FB0EFEF1
:101880000BFB07F71EEB064E4CEB164C4FF0000619
:101890001EEB074E4CEB174B18EB0B0840F100000A
:1018A00018EB0E0B58EB000840F100008F1A4FF0B8
:1018B00000013CBFC943661B14BFB5EB040C0021FB
:1018C0003CBFC943F61B4FEA17444EEA8E0E27EA87
:1018D00004454FEA1C4704FB07622CEA074C05FB52
:1018E00007F70CFB05F604FB0CFC16EB074642EB76
:1018F000174216EB0C4642EB1C421BEB060658EB5C
:101900000202414146EA9E0601D5BDE80189B619A9
:10191000524141EB0101A3F10103BDE801894FEA06
:1019200014454FEA114724EA054621EA074C05FB16
:1019300007F406FB07F70CFB06F105FB0CFC11EBAB
:10194000074144EB17444FEA124711EB0C4144EBBB
:101950001C4422EA074C05FB07F206FB07F70CFBC9
:1019600006F605FB0CFC16EB074642EB174216EB9E
:101970000C4642EB1C456A1854F1000148BF704701
:10198000B619524141EB0101A3F10103704795F0F3
:10199000000F37D04FEA11424FEA144721EA0246BE
:1019A00024EA074C02FB07F106FB07F70CFB06F4E1
:1019B00002FB0CFC14EB074441EB17414FEA1547BF
:1019C00014EB0C4441EB1C4125EA074C02FB07F5E4
:1019D00006FB07F70CFB06F602FB0CFC16EB0746B2
:1019E00045EB174516EB0C4645EB1C42121951F11D
:1019F000000148BF7047B619524141EB0101A3F104
:101A0000010370474FEA14454FEA114724EA05469F
:101A100021EA074C05FB07F106FB07F70CFB06F272
:101A20004FF0000605FB0CFC12EB074241EB17419F
:101A300012EB0C4251EB1C4148BF7047921841EB2E
:101A40000101A3F10103704700BFFEE710B50B4988
:101A50000B4800F037F8002405E00A48005D0A4909
:101A60000855601C84B2182CF7DB01200749087068
:101A70000121034800F040F810BD0000008800205C
:101A800088600240A0000020B80000202D00002047
:101A90000246094B9A4201D2084801E00648103834
:101AA00001F000531BB1064B0B40C36002E0044B36
:101AB0000B408360704700001064024000600240E9
:101AC0007D0F7D0F0246094B9A4201D2084801E082
:101AD0000648103801F000531BB1064B0B40C360A1
:101AE00002E0044B0B40836070470000106402402A
:101AF000006002407D0F7D0F21B1026842F00102BB
:101B0000026003E0026822F001020260704710B533
:101B100001F080034BB122B1436943F0800343617C
:101B200003E0436923F08003436180290BD02AB18D
:101B3000036801F01E042343036004E0036801F01E
:101B40001E04A343036010BD10B500220268134BAE
:101B50001A40CC680B6823434C6923438C692343A8
:101B6000CC6923430C6A23434C6A23438C6A234386
:101B70004C6B23438C6B23431A430260426922F06F
:101B80000702D1E90B3423431A4342610B694360D6
:101B90004B6883608B68C36010BD00003F801CF001
:101BA00000B58FB0012240211A4801F023F901212C
:101BB000480500F009FC4FF0006000901548001D3A
:101BC00001901548029000200390182004900020F6
:101BD00005904FF4806006900020079008900990CF
:101BE0004FF400300A9000200B9001200C90002050
:101BF0000D900E9069460948FFF7A6FF012107489E
:101C0000FFF77AFF012210210448FFF780FF0FB091
:101C100000BD000000440040A00000208860024099
:101C200000B58FB001228021154801F0E3F84FF094
:101C3000006000901248001D019012480290402060
:101C4000039005200490002005904FF480600690DA
:101C500000200790089009904FF400300A9000206F
:101C60000B9001200C9000200D900E9069460648C4
:101C7000FFF76AFF01210448FFF73EFF0FB000BDE8
:101C80000044004028000020A060024010B501F090
:101C900059F8FFF785FFFFF7C3FF00F047F910BDC4
:101CA00070B50546002404E0285D09490855601C0C
:101CB000C4B2052CF8DB07490748FFF7E9FE052009
:101CC0000549091D086001210348FFF715FF70BD94
:101CD0002800002000002020A06002401CB504461F
:101CE000002C04DA2D208DF80000644202E02B2045
:101CF0008DF80000642094FBF0F03030C0B28DF815
:101D00000100642094FBF0F100FB11440A2094FBD5
:101D1000F0F03030C0B28DF802000A2094FBF0F1F0
:101D200000FB11403030C0B28DF803000A208DF85E
:101D300004006846FFF7B4FF1CBD70471CB50121C5
:101D4000084600F051FB0121084600F03DFB03204E
:101D5000009002208DF8040000208DF8060001207C
:101D60008DF8070003208DF805006946204800F033
:101D700043F8012200211E4800F0B0F8012211466C
:101D80001B4800F0ABF81B480078012805D1002360
:101D90001A460121800700F061FE164800780228EB
:101DA00005D100231A460121400700F057FE1148D3
:101DB0000078042805D100231A460321000700F00B
:101DC0004DFE4FF0FF314FF0804000F02AFF4FF002
:101DD0008040008B40F0A0004FF08041088301213B
:101DE000880700F067FD4FF40040C10348621CBD46
:101DF0000000024084000020F0B50A4600210023C4
:101E0000002400BF3DE0012505FA01F3156805EA4D
:101E100003049C4234D105684F000326BE40B543FD
:101E2000056015794E00B5400668354305601579A3
:101E3000012D02D01579022D16D185684F00032699
:101E4000BE40B543856055794E00B5408668354340
:101E50008560456801268E40B543456045689679A2
:101E60008E40B6B235434560C5684F000326BE407C
:101E7000B543C560D5794E00B540C6683543C560E9
:101E8000491C1029BFD3F0BD1CB50121084600F044
:101E90009BFA02220621104800F020F802220721B6
:101EA0000D4800F01BF84020009000208DF806003F
:101EB0008DF8070002208DF8040003208DF805003E
:101EC00069460548FFF798FF802000906946024860
:101ED000FFF792FF1CBD000000000240F0B5002398
:101EE00000244D07ED0E02FA05F3CE1000F1200597
:101EF00055F826504E07F70E0F26BE40B543CF10BB
:101F000000F1200646F82750CE1000F1200555F8C4
:101F1000265045EA0304CE1000F1200545F826407E
:101F2000F0BD00BFFEE700BFFEE7704708B5102018
:101F30008DF8000000208DF801008DF802000120CE
:101F40008DF80300684600F001F808BD70B5002167
:101F500000230F22C4781CB3174C246804F4E064F7
:101F6000C4F5E064C4F30721C1F10404E3B20A41FB
:101F700044789C40E1B28478144021430C07210E40
:101F80000E4C05786155047804F01F050124AC401F
:101F900005786D11AD0005F1E025C5F8004109E0B7
:101FA000047804F01F050124AC40054D0678761135
:101FB00045F8264070BD00000CED00E000E400E0B4
:101FC00080E100E002490143024A116070470000CD
:101FD0000000FA050CED00E010B52DED0E8B9FED25
:101FE000A40AB0EE408AA34890ED000ADFEDA20AF1
:101FF00080EE201A11EE104A204601F0C9FF41EC94
:10200000190B9E4890ED000B53EC102B51EC190B63
:1020100001F0D4FE9A4A03C29A4890ED000B53ECAB
:10202000102B974890ED000B51EC100B01F0C6FE01
:1020300041EC190B9448006801F0AAFF41EC1B0B1E
:102040009FED920B53EC102B01F078FD41EC1A0B35
:1020500053EC192B01F072FD8E4A03C2894890EDB2
:10206000000B53EC102B864890ED000B51EC100B3D
:1020700001F07EFA41EC190B8748006801F088FFF7
:1020800041EC1B0B8548006801F008FD41EC1E0B7C
:102090009FED830B53EC102B01F026FB41EC1D0B45
:1020A0009FED810B53EC102B01F048FD41EC1C0B14
:1020B00053EC1B2B01F042FD41EC1A0B53EC192B96
:1020C00001F03CFD7A4A03C26E4890ED000B53ECE0
:1020D000102B9FED780B51EC100B01F02FFD41EC14
:1020E0001C0B674890ED000B53EC102B51EC1C0BB4
:1020F00001F058FE41EC1B0B704890ED000B53ECC7
:10210000102B51EC1B0B01F033FA41EC190B634817
:10211000006801F0C3FC41EC1D0B9FED610B53EC1B
:10212000102B01F0E1FA41EC1B0B6548006801F04F
:102130002FFF41EC1D0B9FED550B53EC102B01F0C5
:10214000FDFC41EC1C0B53EC1B2B01F0CDFA41ECD8
:102150001A0B53EC192B01F0F1FC5A4A03C24D48FB
:1021600090ED000B53EC102B574890ED000B51EC09
:10217000100B01F0FDF941EC1A0B4D4890ED000BEE
:1021800053EC102B51EC1A0B01F0F2F941EC190B46
:102190004C4890ED000B53EC102B51EC190B01F057
:1021A000E7F9494A03C2374890ED000B434880EDF8
:1021B000000B334890ED000B324880ED000B9FED93
:1021C000430B53EC102B404890ED000B51EC100BDF
:1021D00001F0B2FD05D29FED3D0B3B4880ED000BB9
:1021E00010E09FED3C0B53EC102B374890ED000BAB
:1021F00051EC100B01F066FC04D29FED360B324817
:1022000080ED000B9FED310B53EC102B2E4890ED21
:10221000000B51EC100B01F067FA41EC1A0B9FED2B
:102220002F0B53EC102B01F089FC41EC190B01F042
:102230006DF908EE100AB5EEC08AF1EE10FA0CD274
:10224000B1EE480AB0EE408AB0EE480A00F098F8C5
:102250009FED070A00F072F807E09FED050A00F015
:102260008FF8B0EE480A00F069F8BDEC0E8B10BD97
:102270000000000074000020000070427800002080
:1022800048000020500000206800002000000000EE
:102290000000F03F300000206C000020880000208B
:1022A0000000000080842E41000000000000E03F9C
:1022B000380000200000000000000040580000200E
:1022C000700000204000002060000020000000009E
:1022D0000000284000000000000028C000000000AE
:1022E0000000594000B585B07020ADF80000012015
:1022F000ADF802000220ADF80C0000200290694603
:10230000084800F0E7FB0821064800F021FC694678
:10231000044800F027FC0821024800F075FC05B0D5
:1023200000BD00000004004010B50446FFF7ACFDFE
:10233000204600F091FAFFF7D5FF10BD0020F7EE20
:10234000000AB4EEE00AF1EE10FA10DD094909883E
:1023500000EE901AF8EE600A60EE800A9FED061A11
:10236000C0EE811AFCEEE10A10EE901A481E0349F5
:10237000086070472E0000200000C842380400406A
:102380000020F7EE000AB4EEE00AF1EE10FA10DDDC
:102390000949098800EE901AF8EE600A60EE800A9A
:1023A0009FED061AC0EE811AFCEEE10A10EE901ABB
:1023B000481E0349086070472E0000200000C842F4
:1023C000340400407047000029B1064A12680243F5
:1023D000044B1A6004E0034A12688243014B1A60FE
:1023E000704700003038024029B1064A12680243A3
:1023F000044B1A6004E0034A12688243014B1A60DE
:10240000704700004038024029B1064A1268024372
:10241000044B1A6004E0034A12688243014B1A60BD
:10242000704700002038024029B1064A1268024372
:10243000044B1A6004E0034A12688243014B1A609D
:1024400070470000243802402DE9F04100210023AC
:1024500000240226002502220227DFF8A4C1DCF8AE
:1024600000C00CF00C0131B1042909D008290CD0AE
:102470000C297CD148E0DFF88CC1C0F800C089E0AD
:10248000DFF884C1C0F800C084E0DFF874C1ACF1AB
:10249000040CDCF800C0CCF38055DFF864C1ACF16B
:1024A000040CDCF800C00CF03F0275B1DFF858C135
:1024B000BCFBF2FCDFF84881A8F10408D8F80080E2
:1024C000C8F388180CFB08F40DE0DFF838C1BCFB3A
:1024D000F2FCDFF82C81A8F10408D8F80080C8F3DA
:1024E00088180CFB08F4DFF818C1ACF1040CDCF818
:1024F00000C0CCF3014C0CF1010C4FEA4C06B4FBCC
:10250000F6FCC0F800C045E0DFF8F4C0ACF1040C04
:10251000DCF800C0CCF38055DFF8E4C0ACF1040C6B
:10252000DCF800C00CF03F0275B1DFF8DCC0BCFB8A
:10253000F2FCDFF8CC80A8F10408D8F80080C8F3DA
:1025400088180CFB08F40DE0DFF8B8C0BCFBF2FC07
:10255000DFF8AC80A8F10408D8F80080C8F3881828
:102560000CFB08F4DFF898C0ACF1040C00E00CE0C0
:10257000DCF800C0CCF3027C0CF1010C4FEA4C07F4
:10258000B4FBF7FCC0F800C004E0DFF878C0C0F886
:1025900000C000BF00BFDFF868C0DCF800C00CF06E
:1025A000F0010909DFF864C01CF80130D0F800C060
:1025B0002CFA03FCC0F804C0DFF844C0DCF800C00B
:1025C0000CF4E051890ADFF844C01CF80130D0F85F
:1025D00004C02CFA03FCC0F808C0DFF824C0DCF803
:1025E00000C00CF46041490BDFF820C01CF801303A
:1025F000D0F804C02CFA03FCC0F80CC0BDE8F08190
:10260000083802400024F40000127A008F000020F5
:10261000704700000CB5002001900090344800681D
:1026200040F480303249086000BF3148006800F44F
:10263000003000900198401C0190009818B9019852
:10264000B0F5A04FF1D12A48006800F4003010B175
:102650000120009001E0002000900098012846D160
:1026600023484030006840F08050214940310860E4
:102670002048006840F440401E4908601C4808306B
:1026800000681B49083108600846006840F40040B3
:1026900008600846006840F4A05008601648091F0A
:1026A0000860081F006840F08070091F086000BFC4
:1026B0000F48006800F000700028F9D040F2057063
:1026C0000E4908600A480830006820F003000849F5
:1026D000083108600846006840F00200086000BF4A
:1026E00003480830006800F00C000828F8D10CBD41
:1026F000003802400070004008644127003C02405E
:102700007047000010B51548006840F47000134988
:1027100008601348006840F001001149086000207B
:102720000F49083108600E4800680E4908400C49FE
:1027300008600D48091D0860081F006820F480200B
:10274000091F0860002006490C310860FFF762FF8E
:102750004FF0006001498039086010BD88ED00E04D
:1027600000380240FFFFF6FE1030002410B52DEDBA
:102770000C8B01212C4800F092F9012851D1012144
:10278000294800F094F84FF08040406AA0F50040DE
:102790002649086026480078012805D1086800EB22
:1027A000D0714910214A11602248006801F076F981
:1027B00041EC1A0B9FED200B53EC102B00F094FF13
:1027C00041EC180B1A48007801F068F941EC1D0B38
:1027D0009FED1B0B53EC102B01F0B0F941EC1C0BDF
:1027E0009FED190B53EC102B01F0A8F941EC1A0BDB
:1027F0000E48006801F03BF941EC1B0B53EC1A2B1F
:1028000000F072FF41EC190B53EC182B00F06CFF39
:102810000F4A03C24FF40040C103486201200D4932
:102820000870BDEC0C8B10BD00080040800000203B
:1028300084000020880000200000000080842E41D9
:10284000000000000000264000000000008046401C
:10285000780000208E0000203EB5044601210220B1
:10286000FFF7C2FD0020ADF80000ADF802004CF209
:10287000503090FBF4F00A49088008460088401E5A
:1028800001900020ADF808008DF80A00694605485F
:1028900000F0CAF90121034800F00CF83EBD000029
:1028A0002E00002000040040CA4302827047CA4341
:1028B0000282704721B1028842F00102028004E0E6
:1028C00002884FF6FE731A400280704710B5044626
:1028D0005548844208D101210846FFF7A5FD002193
:1028E0000120FFF7A1FD9DE0B4F1804F08D1012147
:1028F0000846FFF789FD00210120FFF785FD91E0E3
:102900004A48844208D101210220FFF77DFD0021C1
:102910000220FFF779FD85E04548844208D1012176
:102920000420FFF771FD00210420FFF76DFD79E021
:102930004048844208D101210820FFF765FD0021AD
:102940000820FFF761FD6DE03B48844208D101217A
:102950001020FFF759FD00211020FFF755FD61E021
:102960003648844208D101212020FFF74DFD002187
:102970002020FFF749FD55E03148844208D101216C
:102980000220FFF751FD00210220FFF74DFD49E035
:102990002C48844209D101210804FFF745FD00219C
:1029A0004FF48030FFF740FD3CE02748844209D1D6
:1029B00001214804FFF738FD00214FF40030FFF7F4
:1029C00033FD2FE02148844209D101218804FFF71B
:1029D0002BFD00214FF48020FFF726FD22E01C484C
:1029E000844208D101214020FFF70EFD0021402044
:1029F000FFF70AFD16E01748844208D10121802024
:102A0000FFF702FD00218020FFF7FEFC0AE01248DC
:102A1000844207D101218015FFF7F6FC0021A015A3
:102A2000FFF7F2FC10BD0000000001400004004070
:102A300000080040000C004000100040001400405E
:102A400000040140004001400044014000480140B2
:102A500000180040001C004000200040F0B50C466B
:102A600015461E460021002200230189028B038C9B
:102A70004FF6F877394021434FF6FC473A4040F291
:102A800001173A434FF6DD773B404FF6FF7707EAF1
:102A900006172F433B43018102830384F0BD30B509
:102AA0000246002000230024158A05EA01039589C7
:102AB00005EA010413B10CB1012000E0002030BD93
:102AC0001AB183890B43838102E083898B4383811D
:102AD0007047000070B5002400220023058C4FF6DB
:102AE000FE7635400584028C8388048B4FF68F7503
:102AF0002C40B51E2C400D882C43751E2A408D8914
:102B00002A434D882A43104DA84202D00F4DA842B7
:102B100013D14FF6F7752A40CD892A434FF6FB753E
:102B20002A408D882A434FF6FF652B404FF6FF550C
:102B30002B400D8A2B434D8A2B43838004838D6861
:102B40004563028470BD00000000014000040140A4
:102B50000A460021018B4FF6F77319401143018398
:102B60007047000070B5002400220023058C4FF64A
:102B7000EF7635400584028C8388048B48F6FF7518
:102B80002C404FF6FF452C400D884FF6FF7606EAA5
:102B900005252C434FF6DF752A408D8906EA051579
:102BA0002A434D8806EA05152A43154DA84202D04E
:102BB000144DA8421DD14FF67F752A40CD894FF69E
:102BC000FF7606EA05152A434FF6BF752A408D8821
:102BD00006EA05152A434FF6FF352B404FF2FF75E5
:102BE0002B400D8A06EA85052B434D8A06EA8505AA
:102BF0002B43838004838D688563028470BD00004D
:102C000000000140000401400A460021018B4FF200
:102C1000FF7319404FF6FF7303EA02231943018340
:102C20007047C1627047000000220288184B98422A
:102C30000ED0184B98420BD0B0F1804F08D0164BF5
:102C4000984205D0154B984202D0154B984204D1BA
:102C50004FF68F731A404B881A43124B984207D095
:102C6000114B984204D04FF6FF431A400B891A4388
:102C700002804B68C3620B880385054B984202D0E3
:102C8000044B984201D18B7A0386012383827047DB
:102C90000000014000040140000400400008004022
:102CA000000C004000100040001400401FB52148F7
:102CB000006840082049B0FBF1F0401E84B20121B9
:102CC0000420FFF791FB1D48FFF700FE1C48006839
:102CD000401E0190ADF800400020ADF80800ADF8AE
:102CE000020069461548FFF79FFF01211348FFF7CF
:102CF000DEFD01211148FFF7D7FD012211460F48E3
:102D0000FFF7DEFE01210D48FFF7D4FD4FF4A06070
:102D1000FFF758F91E208DF80C0001208DF80F00E8
:102D20008DF80D0000208DF80E0003A8FFF70EF9B6
:102D30001FBD00000000002040420F0000080040BE
:102D40008800002000B587B001210846FFF73CFB52
:102D500001214804FFF748FB072202211D48FFF725
:102D6000BDF8072203211B48FFF7B8F8042005909F
:102D700002208DF8180000208DF81A0001208DF82F
:102D80001B0002208DF8190005A91248FFF734F83E
:102D90000820059002208DF8180005A90D48FFF7BE
:102DA0002BF84FF4E13001900020ADF80800ADF8A9
:102DB0000A00ADF80C00ADF810000C20ADF80E00C4
:102DC00001A9054800F020F80121034800F006F8A9
:102DD00007B000BD000002400044004021B18289DC
:102DE00042F40052828104E082894DF6FF731A405A
:102DF000828170471AB1838A0B43838202E0838AFF
:102E00008B438382704700002DE9FF4705460E463D
:102E10000024A14600BFA046B08900B100BF2C8AA3
:102E200024F44054F08804432C82AC8941F20C60B5
:102E30008443B08831890843718908430443AC81D5
:102E4000AC8A24F44074B0890443AC826846FFF72E
:102E5000FBFA2048854202D01F48854202D1DDF8A6
:102E60000C9001E0DDF80890A88900F4004040B122
:102E700009EBC90000EB091031684900B0FBF1F71C
:102E800007E009EBC90000EB091031688900B0FBCD
:102E9000F1F76420B7FBF0F004012009642101FB85
:102EA0001078A88900F4004040B1322000EBC8003F
:102EB000B0FBF1F000F00700044308E0322000EB23
:102EC00008106421B0FBF1F000F00F0004432C81E6
:102ED000BDE8FF87001001400014014000BFFEE77D
:102EE00030B52DED048B81B0B0EE408AF0EE608AF3
:102EF0006A4651EC180B00F077F900989FED329B71
:102F00007E300090002821DC53EC192B51EC180B7B
:102F100000F042FD1AD0002140F608004FF00000FA
:102F2000044651EC180B00F0F1FA08EE100A40F6D6
:102F3000080004EA00014FF00000B5EEC08AF1EE8F
:102F400010FA04BF0220FDF718FF2DE00098FF28BB
:102F500030DB002108464FF0000000F4400553EC40
:102F6000192B51EC180B00F0E7FE8CBF0024012454
:102F70000220FDF702FF9FED168A4DB1002C0CBF19
:102F80004FF400004FF48000A84218BF9FED118A53
:102F9000042108464FF00000002C01BFB1EE480AA2
:102FA00001B0BDEC048B30BDB0EE480A01B0BDEC01
:102FB000048B30BD51EC180B00F0A8FA01B000EE04
:102FC000100ABDEC048B30BD0000000000000000C2
:102FD0000000807FFFFF7F7F30B540F2FF742DED52
:102FE000048BF0EE608A18EE901A85B0B0EE408A3D
:102FF0009FED2B9B05468DED008B34EA115147D098
:1030000053EC192B51EC180B00F0C6FC40D02A46AB
:1030100051EC180B01F06CF841EC180B18EE900A0B
:103020008DED008B34EA10501CD053EC192B51EC71
:10303000180B00F0B1FC2BD10220FDF79EFE00F032
:1030400043F810EE901A18EE900A8DED020B8DEDFC
:10305000008B61F31E0003909DED020B05B0BDECEB
:10306000048B30BD0220FDF788FE00F01DF810EE45
:10307000901A18EE900A8DED020B8DED008B61F326
:103080001E0003909DED020B05B0BDEC048B30BD1E
:1030900005B0B0EE480AF0EE680ABDEC048B30BD16
:1030A00000000000000000009FED050B10B553EC80
:1030B000102B51EC100B00F041FD41EC100B10BD3A
:1030C00000000000000000709FED050B10B553ECF0
:1030D000102B51EC100B00F031FD41EC100B10BD2A
:1030E000000000000000001010B5044691ED000B38
:1030F000FFF7F6FE84ED000A10BD10B5044690ED12
:10310000000B0846FFF768FF84ED000B10BD303858
:103110000A2801D2012070470020704710B586B000
:1031200004461A4800F0AEF98DED040A1748401F16
:1031300000F0A8F98DED030A14480A3800F0A2F94E
:103140008DED020A11480F3800F09CF98DED010A4F
:103150000E481038807D30380C491039497D30399F
:1031600001EB810100EB4100C0B28DF8140007486B
:103170001038C07D3038C0B28DF81500142201A976
:103180002046FDF79DF806B010BD0000C8000020E5
:1031900031B52DED040B04460D4804709DED010A78
:1031A0000C4880ED000A9DED020A0B4880ED000AF4
:1031B0009DED030A094880ED000A9DED000A0848CC
:1031C00080ED000AFEF7BAFDFFF770FD05B030BDD7
:1031D00084000020680000206C00002070000020A7
:1031E000740000200000000010B582B01446CDE944
:1031F00000010023009A2360194B21F000409842FF
:103200002ADA024328D0B0F5801FA8BF226810DA5E
:103210009FED150B53EC102B9DED000B51EC100B9B
:1032200000F08CFCCDE900016FF0350221F0004088
:1032300022600F4B6FF31E5103EB205010442060AF
:1032400041F0FF5040F0005001909DED000B00BF99
:1032500002B051EC100B10BD9DED000BF8E7000023
:103260000000F07F0000000000000000000050435C
:1032700002FCFFFF10B59FED070B53EC102B074826
:1032800090ED000B51EC100B00F058FC41EC100BD2
:1032900010BD00000000000000004E40780000203B
:1032A000024800783038C0B270470000B8000020F3
:1032B000FEF7ECFC18E00D48007801280BD1FFF771
:1032C000EFFF012802D100F08FF801E000F0AEF826
:1032D00000200649087006480078012804D100F053
:1032E00009F8002002490870E5E700002D000020E1
:1032F0008E00002010B52DED0A8BFFF7BBFFB0EE5E
:10330000408AF0EE608AFEF767FE204890ED000BE1
:1033100053EC102B9FED1E0B51EC100B00F00EFC2C
:1033200041EC190B53EC182B9FED190B51EC100BC2
:1033300000F004FC41EC1B0B174890ED000B53EC24
:10334000102B9FED160B51EC100B00F0F7FB41EC2E
:103350001C0B53EC1B2B00F00BF941EC1A0B53EC3C
:10336000192B00F005F90C4A03C2084880ED008BC8
:10337000094890ED000B51EC100B00F049FB04469E
:10338000FEF7ACFCBDEC0A8B10BD0000180000205D
:10339000C217265305A3B23F200000208716D9CEBE
:1033A000F753EB3F9FED0A0B0B4880ED000B9FEDB1
:1033B000080B0A4880ED000B9FED050B084880EDD7
:1033C000000B9FED030B074880ED000B70470000DA
:1033D0000000000000000000480000205000002015
:1033E000580000206000002000B585B06846FFF757
:1033F00095FE9DF81000FEF797FF9FED0B0AFEF774
:10340000BFFF9FED090AFEF799FF9DF81100DDED62
:10341000031A9DED021ADDED010A9DED000AFFF78A
:10342000B7FE05B000BD00000000000010B59FED24
:103430000F0B104880ED000B9FED0C0B0E4880ED3C
:10344000000BFFF7AFFF9FED0D0AFEF799FF9FED11
:103450000B0AFEF773FF00214FF08040FFF72AFAB6
:1034600000210748FFF726FA10BD00000000000009
:1034700000000000180000202000002000000000D4
:10348000000800403EB50546002403E0285D0DF825
:103490000400641C052CF9DB00208DF8050002AA4D
:1034A00003A16846FCF7EEFE9DED020A3EBD00005A
:1034B0002566000010B500290AD00878002807D03A
:1034C00005487844FDF794FE002801D0002010BD87
:1034D0000248784410BD00008A0D0000820D0000F3
:1034E00010B500290AD00878002807D0054878448C
:1034F000FDF77EFE002801D0002010BD0248784470
:1035000010BD00007A0D0000720D000021F0004295
:10351000A2F16052B2F5801F01F0004328BFD2F142
:103520007F6C0BD95FEA001C43EAC20242EB507089
:1035300018BF704728BF20F001007047B2F5801F08
:10354000BCBF184670474FEA410C1CF5001F02D261
:10355000084600F093BD70B500F09AFB00000089AA
:10356000FFF7F6BF4FF00040A0F580007047000065
:1035700010B591EA030F48BF83F0004300F12684A1
:10358000841A71EB030C05D2121943EB0C03001BD8
:1035900061EB0C01DFF824E14FEA1154A4EB135C5A
:1035A0001EEA430F18BF9EEA445F73D023EA0E035E
:1035B000DCF1200E21EA045143F4801332D322FAC5
:1035C0000CFE10EB0E0023FA0CFE41EB0E01CCF1C9
:1035D000200E03FA0EFE10EB0E0051F10001B1F5C2
:1035E000801FCCF1200E32D201EB045112FA0EF200
:1035F000BDE8104058BF7047401C38BF5FEA420228
:1036000018BF7047002814BF20F0010041F10001ED
:103610004FEA410313F5001F38BF7047A1F1C041C5
:1036200000F084BB012A43EB0302ACF1200CDCF177
:103630001F0E32BF4FF0000E23FA0CF310EB030005
:1036400041EB0451B4EB115FD0D0A1EB045101F573
:10365000801149085FEA300001EB04510ED350F1AC
:10366000000038BF12FA0EFE08D1BDE81040C9E7CD
:10367000401C38BF5FEA4202CAD1C3E7BDE8104030
:103680004FEA410313F5001F38BF7047A1F1C04155
:1036900000F04CBB9EEA445F08D011EA5E0FBDE823
:1036A000104004BF01F0004100207047BDE8104009
:1036B00070B500F0EDFA00BF64FBBE3E0000E0FF15
:1036C00002494FF0000000F0E1BC00BF0000F87FAD
:1036D000491058BFC1F140415B1058BFC3F140438E
:1036E0008B42EFF3008070472DE9C04130B4DFF822
:1036F000A0C23CEA111418BF3CEA131400F0EC809D
:1037000081EA03051CEA111444EAD57418BF1CEAC7
:10371000131500F0C780A4EB05044FF0004545EAFF
:10372000C12145EAC32341EA505143EA525304F10F
:103730007F74994204F500344FEAC0204FEAC22258
:1037400008BF904200F09C804FEA13650FF24016CC
:10375000765D4FEA134506FB05F7C7F1807706FB58
:1037600007F74FEAD737A7FB03687642C8F58038DA
:10377000A7FB06CE38BFA8F1010807FB08E64FF00B
:10378000000EA6FB028CE6FB03CEDCF1000CCEF1B2
:10379000004E38BFAEF1010EA6FB0C584FF00007EB
:1037A0004FF00005E6FB0E87A1FB08C6A0FB07CE85
:1037B00016EB0E0645F10005E1FB076515F1E04E3D
:1037C0007EBFA4F580345FEA46066D4116F180079E
:1037D00045F100054FEA17274FEA066647EA0567F5
:1037E000A6F1DE46B6F1805F4FEA15251FD93846AF
:1037F00024F0010C05EBC471BCF1FE6F01EB0C1160
:1038000002D8F0BCBDE8008124425CBF01F5801EF7
:103810009EEAC47F02D4F0BCBDE80081244238D4C3
:10382000F0BCA1F1C041BDE8004100F07FBA4FEA11
:10383000D22242EA43524FEAD323A7FB02864FEA41
:10384000D02040EA415007FB03661EEA0E0F4FEA04
:10385000D12105FB026658BFA6EB0056B6EB005619
:103860004FEA520E4EEAC37E18EB0E0E56EB530E85
:10387000BDD518EB02085E417F1C55F10005B6E787
:103880004FF480154FF000074FF000064FF000088E
:10389000ADE7F0BC4FF0000001F1C04101F0004184
:1038A000BDE8008111EA0C1F0CEA131500D00CE0F2
:1038B00013EA0C1F00F025804FF00000F0BC81EAF5
:1038C000030101F00041BDE80081F0BCBDE800410A
:1038D00081EA030100F02ABAF0BCBDE8004170B5EE
:1038E00000F0D6F9097EFC3E00F007B881EA03013A
:1038F0004FF0000001F00041704781EA030100F041
:1039000015BAF0BCBDE800414FF0000021497047F6
:10391000FFFDFBF9F7F5F4F2F0EEEDEBE9E8E6E494
:10392000E3E1E0DEDDDBDAD8D7D5D4D3D1D0CFCD1B
:10393000CCCBCAC8C7C6C5C4C2C1C0BFBEBDBCBB54
:10394000BAB9B8B7B6B5B4B3B2B1B0AFAEADACAB4F
:10395000AAA9A8A8A7A6A5A4A3A3A2A1A09F9F9E29
:103960009D9C9C9B9A9999989797969595949393DB
:10397000929191908F8F8E8E8D8C8C8B8B8A898972
:1039800088888787868585848483838282818180F5
:103990000000FF070000F87F51EA030C17D41CF564
:1039A000801F58BFBCF5801F00F10680994218BFE8
:1039B000704708BF9042704707D711F5801F58BF66
:1039C00013F5801F19D499427047894270471CF53E
:1039D000801F08D5BCF5801FF7D58B4218BF7047F4
:1039E00008BF824270474FF4001C1CEB410F38BFE8
:1039F0001CEB430F01D28B42704770B500F048F9C1
:103A0000922449004FF000514FF08053FFF760BE01
:103A10004FEA41034FEA5353A3F58063D3F11E03EA
:103A2000C8BFD3F1210C0CDD4FF0004242EAC122A5
:103A300042EA505232FA03FC8CEAE17CACEBE170D2
:103A40007047102BC4BF0020704703F5787CBCF191
:103A5000FF3F04D06FF0004282EA2100704770B54A
:103A600000F016F94992248000207047F2E710F028
:103A7000004248BF4042B0FA80F310FA03F10AD086
:103A8000C3F11D0303F580634FEA415002EB03527B
:103A900002EBD12170474FF000007047B0FA80F37D
:103AA00010FA03F10AD0C3F11D0303F580634FEA56
:103AB00041504FEA035202EBD12170474FF0000012
:103AC0007047000051EA030C17D41CF5801F58BF43
:103AD000BCF5801F00F10680994218BF704708BFEF
:103AE0009042704707D711F5801F58BF13F5801F0C
:103AF00019D499427047894270471CF5801F08D538
:103B0000BCF5801FF7D58B4218BF704708BF8242B3
:103B100070474FF4001C1CEB410F38BF1CEB430FE8
:103B200001D28B42704770B500F0B2F89224490080
:103B30004FF000514FF08053FFF7CABDDFF848C186
:103B400070B51CEA111E1EBF1CEA13159EEA0C0F6D
:103B500095EA0C0F00F06F8081EA030423EA4C130E
:103B60004EEAD47E21EA4C1141F4801143F48013D3
:103B7000AE44A1FB024CA0FB0365AEF17F7E36197B
:103B800055EB0C05A1FB034C4CF10003A0FB021C00
:103B900016EB0C06654153F10003094218BF46F0CD
:103BA000010613F4007F0BD14FEA03314FEA0530D1
:103BB000340341EA155140EA16506FF003020AE05F
:103BC0004FEAC3214FEAC520F40241EA555140EAC9
:103BD00056506FF0020202EB2E4201EB025585EACD
:103BE000CE710AD05FEA440C18BF24F0004450F1B3
:103BF000000041F1000120EAD47040F2FE7C6245F1
:103C000000D270BDA84214BF4FF080444FF0404432
:103C1000002E08BF0024BEF1806FA8BFA1F1C041F3
:103C2000BDE8704080F282804FF0000001F1C04199
:103C300001F0004170479EEA0C0F0CEA131518BF03
:103C400095EA0C0F06D04FF0000081EA030E0EF04B
:103C5000004170BD00F01CF88900013E00F007B87B
:103C600000F009B84FEA430C5FEA5C5C08D081EAD7
:103C7000030100F05BB84FEA410C5FEA5C5CF6D1EF
:103C80004FF00000014970470000FF070000F87F77
:103C90000EF1020E2EF0030E5EF8046B364205D4D0
:103CA000012A43EB030515F5001F12D8012841EB4B
:103CB000010C1CF5001F0CD80ED14FEAD17C15F574
:103CC000001F0CEB4C0C0CF1020C08BF4CEBD37C2E
:103CD00004E04FF0080C01E04FEAD37C0CEB4C05FC
:103CE00026FA05F606F00706B6F1040C06D20EEB2E
:103CF000860CBDE870404CF0010C6047DFE80CF02A
:103D0000090B02024FF000414FF00000A1F5002125
:103D100070BD19461046012851EB010418BFD4F5B7
:103D2000001484BF002001F0004170BD0808A0F518
:103D300000114FEA3101704753EA010C17D41CF50A
:103D4000801F58BFBCF5801F00F106808B4218BF52
:103D5000704708BF8242704707D713F5801F58BFCE
:103D600011F5801F19D48B4270479B4270471CF598
:103D7000801F08D5BCF5801FF7D5994218BF704742
:103D800008BF904270474FF4001C1CEB430F38BF34
:103D90001CEB410F01D2994270470FB40CBC03BC1D
:103DA000FFF7C1BE91EA030F10B581F000413FF566
:103DB000E7AB83F0004300F009B8000010B591EACA
:103DC000030F48BF83F000433FF5DAAB841A71EB71
:103DD000030C07D212198CF0004C43EB0C03001BB0
:103DE00061EB0C01DFF8A4E14FEA1154A4EB135C82
:103DF0001EEA430F18BF9EEA445F00F0B08023EA3A
:103E00006E03524221EA0451C3EB6E0338BF5B1EBE
:103E1000DCF1200E25D322FA0CFE10EB0E0043FA43
:103E20000CFE41EB0E01CCF1200E03FA0EFE10EB5E
:103E30000E0051F10001CCF1200E29D412FA0EF23D
:103E400001EB0451BDE8104058BF7047401C1CBF37
:103E5000B2F1004F704700280CBF491C20F0010050
:103E6000704712EB020E43EB030218BF4FF0010E36
:103E70004EEA4202ACF1200CDCF11E0E54D943FA9A
:103E80000CFE10EB0E0051F1FF31CCF11E0ED5D51A
:103E90000EF1010E12FA0EFE404141EB010101EB61
:103EA000445C5FEA5C5C10D910EBDE7001EB0451FE
:103EB00038BFBEF1004FBDE8104018BF7047002862
:103EC0000CBF491C20F00100704730D24FEAD42CBF
:103ED00011F5001124F400641BD0B1FA81F20B3A01
:103EE000A41AA41ED2F12003914030FA03F319431F
:103EF000904001EBCC71002C01EB0451BDE8104067
:103F0000A8BF704701F1C0414FF0000001F000412F
:103F10007047B0FA80F310FA03F100D110BDE41A33
:103F2000173C4805C90AE4E701EB045110BD4910EC
:103F300001EB0451BDE810404FEA300002E04FF0C1
:103F4000000170474A0008BF0042F8D0B2F5001FD8
:103F500028BF704701F000414FF0000070479EEA13
:103F6000445F07D011EA5E0FBDE8104004BF002196
:103F700000207047BDE8104070B5FFF789FE00BF14
:103F800040DFF63E83F00041104670470000E0FF3E
:103F900043004FEAD30C4FEA3C0C43401FBF40079D
:103FA0000CF1605113F0FE4F70471CF0006F03D10D
:103FB00000200CF0004170470CF0004343EA5070C1
:103FC00010B540EACC0000F00EF800BF00000092EF
:103FD0004FEA0001FFF7AABE4FF000414FF000008A
:103FE000A1F5002170470EF1020E2EF0030E5EF8CF
:103FF000044B244204D44FEA4102B2F17F4F11D85E
:104000004FEA4003B3F17F4F0CD80ED14FEAD07C7A
:10401000B2F17F4F0CEB4C0C0CF1020C08BF4CEBD7
:10402000D17C04E04FF0080C01E04FEAD17C0CEBAE
:104030004C0324FA03F404F00704B4F1040C06D290
:104040000EEB840CBDE810404CF0010C6047DFE83B
:104050000CF0070802024FF00040A0F5800010BDF0
:104060000846420018BFD2F1807288BF00F00040BD
:1040700010BD4FF04070E1EE100A7047FF2141EA99
:10408000D050C00570474FF0000070470CF00F0390
:10409000092B08BF082000F05F800A2B0BD0082BEB
:1040A00018BF704708BF1CF0400F0AD04FF0000047
:1040B0004FF0000170471CF0400F18BF4FF0004058
:1040C00070471CF0100F08D020F0704300F07F42C2
:1040D00042EAD3014FEA4370704700F0604021F09C
:1040E0007F4242EA000201F07F4040EA727070476E
:1040F0004FF0FF0C4CF4E06C1CEA11531CBF9CEA1F
:10410000030C9445C2BFDA4201EB02517047002B09
:104110000DD0BCF1000F0FD0002A01F00041A4BF68
:1041200041F0E04141F07F614FF00000704701F045
:1041300000414FF00000704750EA01334FF09B0CF4
:1041400018BF4CF0806C7FF4BBAA7047FCF714BA20
:10415000FCF71ABEFCF7A8BF1CF4801F11D01CF49A
:10416000E02F03D06FEACC31490070474FF0405048
:10417000EFF3008222F0704242EA000282F30088EC
:1041800070474FF00000704702400000000000A0A0
:104190000000000005400000000000C80000000012
:1041A0000C4000000000409C00000000194000008E
:1041B0000020BCBE0000000034400000BFC91B8EC0
:1041C00000000004B5400000504BCFD06607E2CF9E
:1041D000010000006C4100003E8251AADFEEA734CE
:1041E00001000000D9420000DCB5A0E23A301F9780
:1041F000FFFFFFFFB4450000FD25A0C8E9A3C14FA4
:10420000FFFFFFFFFF3F00000000008000000000F4
:10421000FF3F00000000008000000000784300081D
:1042200000000020A0000000C4010008184400089D
:10423000A000002090060000E0010008000000003F
:104240000000F07FFFFFFFFFFFFFEF7F1C0000007B
:1042500043000000F8FFFFFF0C0000000E0000000C
:104260000F0000002E0000001001000043000000BD
:10427000F8FFFFFF00404040404040404040414187
:10428000414141404040404040404040404040402B
:1042900040404040400502020202020202020202C5
:1042A00002020202022020202020202020202002C2
:1042B0000202020202029090909090901010101052
:1042C00010101010101010101010101010101010EE
:1042D0000202020202028888888888880808080882
:1042E000080808080808080808080808080808084E
:1042F0000202020240000000000000000000000076
:1043000000000000000000000000000000000000AD
:10431000000000000000000000000000000000009D
:10432000000000000000000000000000000000008D
:10433000000000000000000000000000000000007D
:10434000000000000000000000000000000000006D
:10435000000000000000000000000000000000005D
:10436000000000000000000000000000000000004D
:10437000000000000000000000E1F5050000000062
:104380000000000001020304060708090000000005
:10439000000000000000000000000000000000001D
:1043A000000000000000000000000000000000000D
:1043B00000000000000000000000000000000000FD
:1043C00000000000000000000000000000000000ED
:1043D00000000000000000000000000000000000DD
:1043E0000000803F0000803FCDCCCC3D00000000AD
:1043F00000000000000000000000000000000000BD
:104400008813000000000000000000010203040106
:0844100002030406070809007D
:0400000508000245A8
:00000001FF
